{
  "contractName": "Marketplace",
  "abi": [
    {
      "inputs": [],
      "payable": false,
      "stateMutability": "nonpayable",
      "type": "constructor"
    },
    {
      "anonymous": false,
      "inputs": [
        {
          "indexed": false,
          "internalType": "uint256",
          "name": "id",
          "type": "uint256"
        },
        {
          "indexed": false,
          "internalType": "string",
          "name": "name",
          "type": "string"
        },
        {
          "indexed": false,
          "internalType": "string",
          "name": "description",
          "type": "string"
        },
        {
          "indexed": false,
          "internalType": "uint256",
          "name": "price",
          "type": "uint256"
        },
        {
          "indexed": false,
          "internalType": "uint256",
          "name": "fee",
          "type": "uint256"
        },
        {
          "indexed": false,
          "internalType": "address payable",
          "name": "owner",
          "type": "address"
        },
        {
          "indexed": false,
          "internalType": "address payable",
          "name": "buyer",
          "type": "address"
        },
        {
          "indexed": false,
          "internalType": "address payable",
          "name": "courier",
          "type": "address"
        },
        {
          "indexed": false,
          "internalType": "bool",
          "name": "purchased",
          "type": "bool"
        },
        {
          "indexed": false,
          "internalType": "bool",
          "name": "verified",
          "type": "bool"
        },
        {
          "indexed": false,
          "internalType": "bool",
          "name": "transit",
          "type": "bool"
        }
      ],
      "name": "ItemCreated",
      "type": "event"
    },
    {
      "anonymous": false,
      "inputs": [],
      "name": "ItemPurchased",
      "type": "event"
    },
    {
      "constant": true,
      "inputs": [],
      "name": "courierCount",
      "outputs": [
        {
          "internalType": "uint256",
          "name": "",
          "type": "uint256"
        }
      ],
      "payable": false,
      "stateMutability": "view",
      "type": "function"
    },
    {
      "constant": true,
      "inputs": [
        {
          "internalType": "uint256",
          "name": "",
          "type": "uint256"
        }
      ],
      "name": "couriers",
      "outputs": [
        {
          "internalType": "uint256",
          "name": "id",
          "type": "uint256"
        },
        {
          "internalType": "address payable",
          "name": "adr",
          "type": "address"
        },
        {
          "internalType": "uint256",
          "name": "reputation",
          "type": "uint256"
        }
      ],
      "payable": false,
      "stateMutability": "view",
      "type": "function"
    },
    {
      "constant": true,
      "inputs": [],
      "name": "itemCount",
      "outputs": [
        {
          "internalType": "uint256",
          "name": "",
          "type": "uint256"
        }
      ],
      "payable": false,
      "stateMutability": "view",
      "type": "function"
    },
    {
      "constant": true,
      "inputs": [
        {
          "internalType": "uint256",
          "name": "",
          "type": "uint256"
        }
      ],
      "name": "items",
      "outputs": [
        {
          "internalType": "uint256",
          "name": "id",
          "type": "uint256"
        },
        {
          "internalType": "string",
          "name": "name",
          "type": "string"
        },
        {
          "internalType": "string",
          "name": "description",
          "type": "string"
        },
        {
          "internalType": "uint256",
          "name": "price",
          "type": "uint256"
        },
        {
          "internalType": "uint256",
          "name": "fee",
          "type": "uint256"
        },
        {
          "internalType": "address payable",
          "name": "owner",
          "type": "address"
        },
        {
          "internalType": "address payable",
          "name": "buyer",
          "type": "address"
        },
        {
          "internalType": "address payable",
          "name": "courier",
          "type": "address"
        },
        {
          "internalType": "bool",
          "name": "purchased",
          "type": "bool"
        },
        {
          "internalType": "bool",
          "name": "verified",
          "type": "bool"
        },
        {
          "internalType": "bool",
          "name": "transit",
          "type": "bool"
        }
      ],
      "payable": false,
      "stateMutability": "view",
      "type": "function"
    },
    {
      "constant": true,
      "inputs": [],
      "name": "name",
      "outputs": [
        {
          "internalType": "string",
          "name": "",
          "type": "string"
        }
      ],
      "payable": false,
      "stateMutability": "view",
      "type": "function"
    },
    {
      "constant": false,
      "inputs": [],
      "name": "getItemCount",
      "outputs": [
        {
          "internalType": "uint256",
          "name": "",
          "type": "uint256"
        }
      ],
      "payable": false,
      "stateMutability": "nonpayable",
      "type": "function"
    },
    {
      "constant": false,
      "inputs": [],
      "name": "becomeCourier",
      "outputs": [],
      "payable": false,
      "stateMutability": "nonpayable",
      "type": "function"
    },
    {
      "constant": false,
      "inputs": [],
      "name": "getCouriers",
      "outputs": [
        {
          "components": [
            {
              "internalType": "uint256",
              "name": "id",
              "type": "uint256"
            },
            {
              "internalType": "address payable",
              "name": "adr",
              "type": "address"
            },
            {
              "internalType": "uint256",
              "name": "reputation",
              "type": "uint256"
            }
          ],
          "internalType": "struct Marketplace.Courier[]",
          "name": "",
          "type": "tuple[]"
        }
      ],
      "payable": false,
      "stateMutability": "nonpayable",
      "type": "function"
    },
    {
      "constant": false,
      "inputs": [],
      "name": "getItems",
      "outputs": [
        {
          "components": [
            {
              "internalType": "uint256",
              "name": "id",
              "type": "uint256"
            },
            {
              "internalType": "string",
              "name": "name",
              "type": "string"
            },
            {
              "internalType": "string",
              "name": "description",
              "type": "string"
            },
            {
              "internalType": "uint256",
              "name": "price",
              "type": "uint256"
            },
            {
              "internalType": "uint256",
              "name": "fee",
              "type": "uint256"
            },
            {
              "internalType": "address payable",
              "name": "owner",
              "type": "address"
            },
            {
              "internalType": "address payable",
              "name": "buyer",
              "type": "address"
            },
            {
              "internalType": "address payable",
              "name": "courier",
              "type": "address"
            },
            {
              "internalType": "bool",
              "name": "purchased",
              "type": "bool"
            },
            {
              "internalType": "bool",
              "name": "verified",
              "type": "bool"
            },
            {
              "internalType": "bool",
              "name": "transit",
              "type": "bool"
            }
          ],
          "internalType": "struct Marketplace.Item[]",
          "name": "",
          "type": "tuple[]"
        }
      ],
      "payable": false,
      "stateMutability": "nonpayable",
      "type": "function"
    },
    {
      "constant": false,
      "inputs": [
        {
          "internalType": "string",
          "name": "_name",
          "type": "string"
        },
        {
          "internalType": "string",
          "name": "_description",
          "type": "string"
        },
        {
          "internalType": "uint256",
          "name": "_price",
          "type": "uint256"
        }
      ],
      "name": "createItem",
      "outputs": [],
      "payable": false,
      "stateMutability": "nonpayable",
      "type": "function"
    },
    {
      "constant": false,
      "inputs": [
        {
          "internalType": "uint256",
          "name": "_id",
          "type": "uint256"
        }
      ],
      "name": "purchaseItem",
      "outputs": [],
      "payable": true,
      "stateMutability": "payable",
      "type": "function"
    },
    {
      "constant": false,
      "inputs": [
        {
          "internalType": "uint256",
          "name": "_id",
          "type": "uint256"
        },
        {
          "internalType": "uint256",
          "name": "percentage",
          "type": "uint256"
        }
      ],
      "name": "setPurchaseFee",
      "outputs": [],
      "payable": false,
      "stateMutability": "nonpayable",
      "type": "function"
    },
    {
      "constant": false,
      "inputs": [
        {
          "internalType": "uint256",
          "name": "_id",
          "type": "uint256"
        }
      ],
      "name": "verifyPurchase",
      "outputs": [],
      "payable": true,
      "stateMutability": "payable",
      "type": "function"
    },
    {
      "constant": false,
      "inputs": [
        {
          "internalType": "uint256",
          "name": "_id",
          "type": "uint256"
        }
      ],
      "name": "cancelPurchase",
      "outputs": [],
      "payable": true,
      "stateMutability": "payable",
      "type": "function"
    },
    {
      "constant": false,
      "inputs": [
        {
          "internalType": "uint256",
          "name": "_id",
          "type": "uint256"
        }
      ],
      "name": "deleteItem",
      "outputs": [],
      "payable": false,
      "stateMutability": "nonpayable",
      "type": "function"
    }
  ],
  "bytecode": "0x6080604052600060015560006002553480156200001b57600080fd5b506040518060400160405280600b81526020017f4d61726b6574706c616365000000000000000000000000000000000000000000815250600090805190602001906200006992919062000070565b506200011f565b828054600181600116156101000203166002900490600052602060002090601f016020900481019282601f10620000b357805160ff1916838001178555620000e4565b82800160010185558215620000e4579182015b82811115620000e3578251825591602001919060010190620000c6565b5b509050620000f39190620000f7565b5090565b6200011c91905b8082111562000118576000816000905550600101620000fe565b5090565b90565b613ead806200012f6000396000f3fe6080604052600436106100e85760003560e01c80637749cf231161008a578063bfb231d211610059578063bfb231d21461029d578063c3634ddc146102e4578063d38ea5bf14610300578063e2da36101461031c576100e8565b80637749cf2314610200578063a016d4d91461022b578063afa19eb414610256578063baca263e14610281576100e8565b8063410d59cc116100c6578063410d59cc146101585780635fb6161c14610183578063654fc833146101ac5780636bfb0d01146101d5576100e8565b806306fdde03146100ed5780631291479414610118578063214eafb714610141575b600080fd5b3480156100f957600080fd5b5061010261035b565b60405161010f919061393d565b60405180910390f35b34801561012457600080fd5b5061013f600480360361013a91908101906131da565b6103f9565b005b34801561014d57600080fd5b506101566108e7565b005b34801561016457600080fd5b5061016d6109a2565b60405161017a919061391b565b60405180910390f35b34801561018f57600080fd5b506101aa60048036036101a59190810190613132565b610cf4565b005b3480156101b857600080fd5b506101d360048036036101ce91908101906131b1565b611027565b005b3480156101e157600080fd5b506101ea6114c0565b6040516101f79190613adf565b60405180910390f35b34801561020c57600080fd5b506102156114c6565b6040516102229190613adf565b60405180910390f35b34801561023757600080fd5b506102406114d0565b60405161024d9190613adf565b60405180910390f35b34801561026257600080fd5b5061026b6114d6565b60405161027891906138f9565b60405180910390f35b61029b600480360361029691908101906131b1565b6115dc565b005b3480156102a957600080fd5b506102c460048036036102bf91908101906131b1565b611d74565b6040516102db9b9a99989796959493929190613bea565b60405180910390f35b6102fe60048036036102f991908101906131b1565b611f85565b005b61031a600480360361031591908101906131b1565b6126ae565b005b34801561032857600080fd5b50610343600480360361033e91908101906131b1565b612ce5565b60405161035293929190613afa565b60405180910390f35b60008054600181600116156101000203166002900480601f0160208091040260200160405190810160405280929190818152602001828054600181600116156101000203166002900480156103f15780601f106103c6576101008083540402835291602001916103f1565b820191906000526020600020905b8154815290600101906020018083116103d457829003601f168201915b505050505081565b610401612e2a565b600360008481526020019081526020016000206040518061016001604052908160008201548152602001600182018054600181600116156101000203166002900480601f0160208091040260200160405190810160405280929190818152602001828054600181600116156101000203166002900480156104c35780601f10610498576101008083540402835291602001916104c3565b820191906000526020600020905b8154815290600101906020018083116104a657829003601f168201915b50505050508152602001600282018054600181600116156101000203166002900480601f0160208091040260200160405190810160405280929190818152602001828054600181600116156101000203166002900480156105655780601f1061053a57610100808354040283529160200191610565565b820191906000526020600020905b81548152906001019060200180831161054857829003601f168201915b5050505050815260200160038201548152602001600482015481526020016005820160009054906101000a900473ffffffffffffffffffffffffffffffffffffffff1673ffffffffffffffffffffffffffffffffffffffff1673ffffffffffffffffffffffffffffffffffffffff1681526020016006820160009054906101000a900473ffffffffffffffffffffffffffffffffffffffff1673ffffffffffffffffffffffffffffffffffffffff1673ffffffffffffffffffffffffffffffffffffffff1681526020016007820160009054906101000a900473ffffffffffffffffffffffffffffffffffffffff1673ffffffffffffffffffffffffffffffffffffffff1673ffffffffffffffffffffffffffffffffffffffff1681526020016007820160149054906101000a900460ff161515151581526020016007820160159054906101000a900460ff161515151581526020016007820160169054906101000a900460ff1615151515815250509050606482826060015102816106e757fe5b04816080018181525050338160e0019073ffffffffffffffffffffffffffffffffffffffff16908173ffffffffffffffffffffffffffffffffffffffff16815250506001816101400190151590811515815250508060036000858152602001908152602001600020600082015181600001556020820151816001019080519060200190610775929190612ecc565b506040820151816002019080519060200190610792929190612ecc565b50606082015181600301556080820151816004015560a08201518160050160006101000a81548173ffffffffffffffffffffffffffffffffffffffff021916908373ffffffffffffffffffffffffffffffffffffffff16021790555060c08201518160060160006101000a81548173ffffffffffffffffffffffffffffffffffffffff021916908373ffffffffffffffffffffffffffffffffffffffff16021790555060e08201518160070160006101000a81548173ffffffffffffffffffffffffffffffffffffffff021916908373ffffffffffffffffffffffffffffffffffffffff1602179055506101008201518160070160146101000a81548160ff0219169083151502179055506101208201518160070160156101000a81548160ff0219169083151502179055506101408201518160070160166101000a81548160ff021916908315150217905550905050505050565b604051806060016040528060025481526020013373ffffffffffffffffffffffffffffffffffffffff16815260200160008152506004600060025481526020019081526020016000206000820151816000015560208201518160010160006101000a81548173ffffffffffffffffffffffffffffffffffffffff021916908373ffffffffffffffffffffffffffffffffffffffff16021790555060408201518160020155905050600260008154809291906001019190505550565b6060806001546040519080825280602002602001820160405280156109e157816020015b6109ce612f4c565b8152602001906001900390816109c65790505b50905060008090505b600154811015610cec57600360008281526020019081526020016000206040518061016001604052908160008201548152602001600182018054600181600116156101000203166002900480601f016020809104026020016040519081016040528092919081815260200182805460018160011615610100020316600290048015610ab65780601f10610a8b57610100808354040283529160200191610ab6565b820191906000526020600020905b815481529060010190602001808311610a9957829003601f168201915b50505050508152602001600282018054600181600116156101000203166002900480601f016020809104026020016040519081016040528092919081815260200182805460018160011615610100020316600290048015610b585780601f10610b2d57610100808354040283529160200191610b58565b820191906000526020600020905b815481529060010190602001808311610b3b57829003601f168201915b5050505050815260200160038201548152602001600482015481526020016005820160009054906101000a900473ffffffffffffffffffffffffffffffffffffffff1673ffffffffffffffffffffffffffffffffffffffff1673ffffffffffffffffffffffffffffffffffffffff1681526020016006820160009054906101000a900473ffffffffffffffffffffffffffffffffffffffff1673ffffffffffffffffffffffffffffffffffffffff1673ffffffffffffffffffffffffffffffffffffffff1681526020016007820160009054906101000a900473ffffffffffffffffffffffffffffffffffffffff1673ffffffffffffffffffffffffffffffffffffffff1673ffffffffffffffffffffffffffffffffffffffff1681526020016007820160149054906101000a900460ff161515151581526020016007820160159054906101000a900460ff161515151581526020016007820160169054906101000a900460ff161515151581525050828281518110610cd457fe5b602002602001018190525080806001019150506109ea565b508091505090565b6000835111610d38576040517f08c379a0000000000000000000000000000000000000000000000000000000008152600401610d2f90613a5f565b60405180910390fd5b60008111610d7b576040517f08c379a0000000000000000000000000000000000000000000000000000000008152600401610d7290613a5f565b60405180910390fd5b6040518061016001604052806001548152602001848152602001838152602001828152602001600081526020013373ffffffffffffffffffffffffffffffffffffffff168152602001600073ffffffffffffffffffffffffffffffffffffffff168152602001600073ffffffffffffffffffffffffffffffffffffffff16815260200160001515815260200160001515815260200160001515815250600360006001548152602001908152602001600020600082015181600001556020820151816001019080519060200190610e52929190612ecc565b506040820151816002019080519060200190610e6f929190612ecc565b50606082015181600301556080820151816004015560a08201518160050160006101000a81548173ffffffffffffffffffffffffffffffffffffffff021916908373ffffffffffffffffffffffffffffffffffffffff16021790555060c08201518160060160006101000a81548173ffffffffffffffffffffffffffffffffffffffff021916908373ffffffffffffffffffffffffffffffffffffffff16021790555060e08201518160070160006101000a81548173ffffffffffffffffffffffffffffffffffffffff021916908373ffffffffffffffffffffffffffffffffffffffff1602179055506101008201518160070160146101000a81548160ff0219169083151502179055506101208201518160070160156101000a81548160ff0219169083151502179055506101408201518160070160166101000a81548160ff0219169083151502179055509050506001600081548092919060010191905055507fdaf31391b5e648c7721a31aadb591c48359ce114513e856b1c397a79d091ea16600154848484600033600080600080600060405161101a9b9a99989796959493929190613b31565b60405180910390a1505050565b61102f612e2a565b600360008381526020019081526020016000206040518061016001604052908160008201548152602001600182018054600181600116156101000203166002900480601f0160208091040260200160405190810160405280929190818152602001828054600181600116156101000203166002900480156110f15780601f106110c6576101008083540402835291602001916110f1565b820191906000526020600020905b8154815290600101906020018083116110d457829003601f168201915b50505050508152602001600282018054600181600116156101000203166002900480601f0160208091040260200160405190810160405280929190818152602001828054600181600116156101000203166002900480156111935780601f1061116857610100808354040283529160200191611193565b820191906000526020600020905b81548152906001019060200180831161117657829003601f168201915b5050505050815260200160038201548152602001600482015481526020016005820160009054906101000a900473ffffffffffffffffffffffffffffffffffffffff1673ffffffffffffffffffffffffffffffffffffffff1673ffffffffffffffffffffffffffffffffffffffff1681526020016006820160009054906101000a900473ffffffffffffffffffffffffffffffffffffffff1673ffffffffffffffffffffffffffffffffffffffff1673ffffffffffffffffffffffffffffffffffffffff1681526020016007820160009054906101000a900473ffffffffffffffffffffffffffffffffffffffff1673ffffffffffffffffffffffffffffffffffffffff1673ffffffffffffffffffffffffffffffffffffffff1681526020016007820160149054906101000a900460ff161515151581526020016007820160159054906101000a900460ff161515151581526020016007820160169054906101000a900460ff16151515158152505090508060a0015173ffffffffffffffffffffffffffffffffffffffff163373ffffffffffffffffffffffffffffffffffffffff1614611377576040517f08c379a000000000000000000000000000000000000000000000000000000000815260040161136e906139df565b60405180910390fd5b806101000151156113bd576040517f08c379a00000000000000000000000000000000000000000000000000000000081526004016113b490613a1f565b60405180910390fd5b600360008381526020019081526020016000206000808201600090556001820160006113e99190612fee565b6002820160006113f99190612fee565b600382016000905560048201600090556005820160006101000a81549073ffffffffffffffffffffffffffffffffffffffff02191690556006820160006101000a81549073ffffffffffffffffffffffffffffffffffffffff02191690556007820160006101000a81549073ffffffffffffffffffffffffffffffffffffffff02191690556007820160146101000a81549060ff02191690556007820160156101000a81549060ff02191690556007820160166101000a81549060ff021916905550505050565b60015481565b6000600154905090565b60025481565b60608060025460405190808252806020026020018201604052801561151557816020015b611502613036565b8152602001906001900390816114fa5790505b50905060008090505b6002548110156115d45760046000828152602001908152602001600020604051806060016040529081600082015481526020016001820160009054906101000a900473ffffffffffffffffffffffffffffffffffffffff1673ffffffffffffffffffffffffffffffffffffffff1673ffffffffffffffffffffffffffffffffffffffff1681526020016002820154815250508282815181106115bc57fe5b6020026020010181905250808060010191505061151e565b508091505090565b6115e4612e2a565b600360008381526020019081526020016000206040518061016001604052908160008201548152602001600182018054600181600116156101000203166002900480601f0160208091040260200160405190810160405280929190818152602001828054600181600116156101000203166002900480156116a65780601f1061167b576101008083540402835291602001916116a6565b820191906000526020600020905b81548152906001019060200180831161168957829003601f168201915b50505050508152602001600282018054600181600116156101000203166002900480601f0160208091040260200160405190810160405280929190818152602001828054600181600116156101000203166002900480156117485780601f1061171d57610100808354040283529160200191611748565b820191906000526020600020905b81548152906001019060200180831161172b57829003601f168201915b5050505050815260200160038201548152602001600482015481526020016005820160009054906101000a900473ffffffffffffffffffffffffffffffffffffffff1673ffffffffffffffffffffffffffffffffffffffff1673ffffffffffffffffffffffffffffffffffffffff1681526020016006820160009054906101000a900473ffffffffffffffffffffffffffffffffffffffff1673ffffffffffffffffffffffffffffffffffffffff1673ffffffffffffffffffffffffffffffffffffffff1681526020016007820160009054906101000a900473ffffffffffffffffffffffffffffffffffffffff1673ffffffffffffffffffffffffffffffffffffffff1673ffffffffffffffffffffffffffffffffffffffff1681526020016007820160149054906101000a900460ff161515151581526020016007820160159054906101000a900460ff161515151581526020016007820160169054906101000a900460ff16151515158152505090508060c0015173ffffffffffffffffffffffffffffffffffffffff163373ffffffffffffffffffffffffffffffffffffffff161461192c576040517f08c379a0000000000000000000000000000000000000000000000000000000008152600401611923906139ff565b60405180910390fd5b80610100015180156119415750806101200151155b611980576040517f08c379a000000000000000000000000000000000000000000000000000000000815260040161197790613a3f565b60405180910390fd5b6000816060015110156119c8576040517f08c379a00000000000000000000000000000000000000000000000000000000081526004016119bf90613abf565b60405180910390fd5b60006119d78260e00151612d2f565b90506119e161306d565b60046000838152602001908152602001600020604051806060016040529081600082015481526020016001820160009054906101000a900473ffffffffffffffffffffffffffffffffffffffff1673ffffffffffffffffffffffffffffffffffffffff1673ffffffffffffffffffffffffffffffffffffffff16815260200160028201548152505090508060400180518091906001018152505080600460008481526020019081526020016000206000820151816000015560208201518160010160006101000a81548173ffffffffffffffffffffffffffffffffffffffff021916908373ffffffffffffffffffffffffffffffffffffffff160217905550604082015181600201559050506001836101000190151590811515815250506001836101200190151590811515815250506000836101400190151590811515815250508260036000868152602001908152602001600020600082015181600001556020820151816001019080519060200190611b5d929190612ecc565b506040820151816002019080519060200190611b7a929190612ecc565b50606082015181600301556080820151816004015560a08201518160050160006101000a81548173ffffffffffffffffffffffffffffffffffffffff021916908373ffffffffffffffffffffffffffffffffffffffff16021790555060c08201518160060160006101000a81548173ffffffffffffffffffffffffffffffffffffffff021916908373ffffffffffffffffffffffffffffffffffffffff16021790555060e08201518160070160006101000a81548173ffffffffffffffffffffffffffffffffffffffff021916908373ffffffffffffffffffffffffffffffffffffffff1602179055506101008201518160070160146101000a81548160ff0219169083151502179055506101208201518160070160156101000a81548160ff0219169083151502179055506101408201518160070160166101000a81548160ff0219169083151502179055509050508260a0015173ffffffffffffffffffffffffffffffffffffffff166108fc84608001518560600151039081150290604051600060405180830381858888f19350505050158015611d1e573d6000803e3d6000fd5b508260e0015173ffffffffffffffffffffffffffffffffffffffff166108fc84608001519081150290604051600060405180830381858888f19350505050158015611d6d573d6000803e3d6000fd5b5050505050565b6003602052806000526040600020600091509050806000015490806001018054600181600116156101000203166002900480601f016020809104026020016040519081016040528092919081815260200182805460018160011615610100020316600290048015611e265780601f10611dfb57610100808354040283529160200191611e26565b820191906000526020600020905b815481529060010190602001808311611e0957829003601f168201915b505050505090806002018054600181600116156101000203166002900480601f016020809104026020016040519081016040528092919081815260200182805460018160011615610100020316600290048015611ec45780601f10611e9957610100808354040283529160200191611ec4565b820191906000526020600020905b815481529060010190602001808311611ea757829003601f168201915b5050505050908060030154908060040154908060050160009054906101000a900473ffffffffffffffffffffffffffffffffffffffff16908060060160009054906101000a900473ffffffffffffffffffffffffffffffffffffffff16908060070160009054906101000a900473ffffffffffffffffffffffffffffffffffffffff16908060070160149054906101000a900460ff16908060070160159054906101000a900460ff16908060070160169054906101000a900460ff1690508b565b611f8d612e2a565b600360008381526020019081526020016000206040518061016001604052908160008201548152602001600182018054600181600116156101000203166002900480601f01602080910402602001604051908101604052809291908181526020018280546001816001161561010002031660029004801561204f5780601f106120245761010080835404028352916020019161204f565b820191906000526020600020905b81548152906001019060200180831161203257829003601f168201915b50505050508152602001600282018054600181600116156101000203166002900480601f0160208091040260200160405190810160405280929190818152602001828054600181600116156101000203166002900480156120f15780601f106120c6576101008083540402835291602001916120f1565b820191906000526020600020905b8154815290600101906020018083116120d457829003601f168201915b5050505050815260200160038201548152602001600482015481526020016005820160009054906101000a900473ffffffffffffffffffffffffffffffffffffffff1673ffffffffffffffffffffffffffffffffffffffff1673ffffffffffffffffffffffffffffffffffffffff1681526020016006820160009054906101000a900473ffffffffffffffffffffffffffffffffffffffff1673ffffffffffffffffffffffffffffffffffffffff1673ffffffffffffffffffffffffffffffffffffffff1681526020016007820160009054906101000a900473ffffffffffffffffffffffffffffffffffffffff1673ffffffffffffffffffffffffffffffffffffffff1673ffffffffffffffffffffffffffffffffffffffff1681526020016007820160149054906101000a900460ff161515151581526020016007820160159054906101000a900460ff161515151581526020016007820160169054906101000a900460ff16151515158152505090508060c0015173ffffffffffffffffffffffffffffffffffffffff163373ffffffffffffffffffffffffffffffffffffffff16146122d5576040517f08c379a00000000000000000000000000000000000000000000000000000000081526004016122cc90613a9f565b60405180910390fd5b80610100015180156122ea5750806101200151155b612329576040517f08c379a0000000000000000000000000000000000000000000000000000000008152600401612320906139bf565b60405180910390fd5b60008161010001901515908115158152505060008160c00151905060006123538360e00151612d2f565b905061235d61306d565b60046000838152602001908152602001600020604051806060016040529081600082015481526020016001820160009054906101000a900473ffffffffffffffffffffffffffffffffffffffff1673ffffffffffffffffffffffffffffffffffffffff1673ffffffffffffffffffffffffffffffffffffffff1681526020016002820154815250509050806040018051809190600190038152505080600460008481526020019081526020016000206000820151816000015560208201518160010160006101000a81548173ffffffffffffffffffffffffffffffffffffffff021916908373ffffffffffffffffffffffffffffffffffffffff160217905550604082015181600201559050508273ffffffffffffffffffffffffffffffffffffffff166108fc85606001519081150290604051600060405180830381858888f193505050501580156124b4573d6000803e3d6000fd5b5060008460c0019073ffffffffffffffffffffffffffffffffffffffff16908173ffffffffffffffffffffffffffffffffffffffff1681525050600084610140019015159081151581525050836003600087815260200190815260200160002060008201518160000155602082015181600101908051906020019061253a929190612ecc565b506040820151816002019080519060200190612557929190612ecc565b50606082015181600301556080820151816004015560a08201518160050160006101000a81548173ffffffffffffffffffffffffffffffffffffffff021916908373ffffffffffffffffffffffffffffffffffffffff16021790555060c08201518160060160006101000a81548173ffffffffffffffffffffffffffffffffffffffff021916908373ffffffffffffffffffffffffffffffffffffffff16021790555060e08201518160070160006101000a81548173ffffffffffffffffffffffffffffffffffffffff021916908373ffffffffffffffffffffffffffffffffffffffff1602179055506101008201518160070160146101000a81548160ff0219169083151502179055506101208201518160070160156101000a81548160ff0219169083151502179055506101408201518160070160166101000a81548160ff0219169083151502179055509050505050505050565b6126b6612e2a565b600360008381526020019081526020016000206040518061016001604052908160008201548152602001600182018054600181600116156101000203166002900480601f0160208091040260200160405190810160405280929190818152602001828054600181600116156101000203166002900480156127785780601f1061274d57610100808354040283529160200191612778565b820191906000526020600020905b81548152906001019060200180831161275b57829003601f168201915b50505050508152602001600282018054600181600116156101000203166002900480601f01602080910402602001604051908101604052809291908181526020018280546001816001161561010002031660029004801561281a5780601f106127ef5761010080835404028352916020019161281a565b820191906000526020600020905b8154815290600101906020018083116127fd57829003601f168201915b5050505050815260200160038201548152602001600482015481526020016005820160009054906101000a900473ffffffffffffffffffffffffffffffffffffffff1673ffffffffffffffffffffffffffffffffffffffff1673ffffffffffffffffffffffffffffffffffffffff1681526020016006820160009054906101000a900473ffffffffffffffffffffffffffffffffffffffff1673ffffffffffffffffffffffffffffffffffffffff1673ffffffffffffffffffffffffffffffffffffffff1681526020016007820160009054906101000a900473ffffffffffffffffffffffffffffffffffffffff1673ffffffffffffffffffffffffffffffffffffffff1673ffffffffffffffffffffffffffffffffffffffff1681526020016007820160149054906101000a900460ff161515151581526020016007820160159054906101000a900460ff161515151581526020016007820160169054906101000a900460ff161515151581525050905080606001513410156129d3576040517f08c379a00000000000000000000000000000000000000000000000000000000081526004016129ca9061395f565b60405180910390fd5b60008160000151101580156129ee5750600154816000015111155b612a2d576040517f08c379a0000000000000000000000000000000000000000000000000000000008152600401612a249061397f565b60405180910390fd5b80610100015115612a73576040517f08c379a0000000000000000000000000000000000000000000000000000000008152600401612a6a9061399f565b60405180910390fd5b3373ffffffffffffffffffffffffffffffffffffffff168160a0015173ffffffffffffffffffffffffffffffffffffffff161415612ae6576040517f08c379a0000000000000000000000000000000000000000000000000000000008152600401612add90613a7f565b60405180910390fd5b60018161010001901515908115158152505034816060018181525050338160c0019073ffffffffffffffffffffffffffffffffffffffff16908173ffffffffffffffffffffffffffffffffffffffff16815250508060036000848152602001908152602001600020600082015181600001556020820151816001019080519060200190612b74929190612ecc565b506040820151816002019080519060200190612b91929190612ecc565b50606082015181600301556080820151816004015560a08201518160050160006101000a81548173ffffffffffffffffffffffffffffffffffffffff021916908373ffffffffffffffffffffffffffffffffffffffff16021790555060c08201518160060160006101000a81548173ffffffffffffffffffffffffffffffffffffffff021916908373ffffffffffffffffffffffffffffffffffffffff16021790555060e08201518160070160006101000a81548173ffffffffffffffffffffffffffffffffffffffff021916908373ffffffffffffffffffffffffffffffffffffffff1602179055506101008201518160070160146101000a81548160ff0219169083151502179055506101208201518160070160156101000a81548160ff0219169083151502179055506101408201518160070160166101000a81548160ff0219169083151502179055509050505050565b60046020528060005260406000206000915090508060000154908060010160009054906101000a900473ffffffffffffffffffffffffffffffffffffffff16908060020154905083565b600080600090505b600254811015612e2357612d4961306d565b60046000838152602001908152602001600020604051806060016040529081600082015481526020016001820160009054906101000a900473ffffffffffffffffffffffffffffffffffffffff1673ffffffffffffffffffffffffffffffffffffffff1673ffffffffffffffffffffffffffffffffffffffff16815260200160028201548152505090508373ffffffffffffffffffffffffffffffffffffffff16816020015173ffffffffffffffffffffffffffffffffffffffff161415612e15578192505050612e25565b508080600101915050612d37565b505b919050565b6040518061016001604052806000815260200160608152602001606081526020016000815260200160008152602001600073ffffffffffffffffffffffffffffffffffffffff168152602001600073ffffffffffffffffffffffffffffffffffffffff168152602001600073ffffffffffffffffffffffffffffffffffffffff1681526020016000151581526020016000151581526020016000151581525090565b828054600181600116156101000203166002900490600052602060002090601f016020900481019282601f10612f0d57805160ff1916838001178555612f3b565b82800160010185558215612f3b579182015b82811115612f3a578251825591602001919060010190612f1f565b5b509050612f4891906130a4565b5090565b6040518061016001604052806000815260200160608152602001606081526020016000815260200160008152602001600073ffffffffffffffffffffffffffffffffffffffff168152602001600073ffffffffffffffffffffffffffffffffffffffff168152602001600073ffffffffffffffffffffffffffffffffffffffff1681526020016000151581526020016000151581526020016000151581525090565b50805460018160011615610100020316600290046000825580601f106130145750613033565b601f01602090049060005260206000209081019061303291906130a4565b5b50565b604051806060016040528060008152602001600073ffffffffffffffffffffffffffffffffffffffff168152602001600081525090565b604051806060016040528060008152602001600073ffffffffffffffffffffffffffffffffffffffff168152602001600081525090565b6130c691905b808211156130c25760008160009055506001016130aa565b5090565b90565b600082601f8301126130da57600080fd5b81356130ed6130e882613cd0565b613ca3565b9150808252602083016020830185838301111561310957600080fd5b613114838284613e00565b50505092915050565b60008135905061312c81613e53565b92915050565b60008060006060848603121561314757600080fd5b600084013567ffffffffffffffff81111561316157600080fd5b61316d868287016130c9565b935050602084013567ffffffffffffffff81111561318a57600080fd5b613196868287016130c9565b92505060406131a78682870161311d565b9150509250925092565b6000602082840312156131c357600080fd5b60006131d18482850161311d565b91505092915050565b600080604083850312156131ed57600080fd5b60006131fb8582860161311d565b925050602061320c8582860161311d565b9150509250929050565b600061322283836137a3565b60608301905092915050565b600061323a83836137e5565b905092915050565b61324b81613da6565b82525050565b61325a81613da6565b82525050565b600061326b82613d1c565b6132758185613d62565b935061328083613cfc565b8060005b838110156132b15781516132988882613216565b97506132a383613d48565b925050600181019050613284565b5085935050505092915050565b60006132c982613d27565b6132d38185613d73565b9350836020820285016132e585613d0c565b8060005b858110156133215784840389528151613302858261322e565b945061330d83613d55565b925060208a019950506001810190506132e9565b50829750879550505050505092915050565b61333c81613db8565b82525050565b61334b81613db8565b82525050565b61335a81613dee565b82525050565b600061336b82613d3d565b6133758185613d95565b9350613385818560208601613e0f565b61338e81613e42565b840191505092915050565b60006133a482613d32565b6133ae8185613d84565b93506133be818560208601613e0f565b6133c781613e42565b840191505092915050565b60006133dd82613d32565b6133e78185613d95565b93506133f7818560208601613e0f565b61340081613e42565b840191505092915050565b6000613418602a83613d95565b91507f7468657265206d75737420626520656e6f756768206574686572206f6e206d6560008301527f73736167652073656e74000000000000000000000000000000000000000000006020830152604082019050919050565b600061347e601983613d95565b91507f6974656d206d757374206861766520612076616c6964206964000000000000006000830152602082019050919050565b60006134be602983613d95565b91507f6974656d20646f6573206e6f74206861766520746f206265207075726368617360008301527f6564206265666f726500000000000000000000000000000000000000000000006020830152604082019050919050565b6000613524601683613d95565b91507f6974656d206d75737420626520707572636861736564000000000000000000006000830152602082019050919050565b6000613564601e83613d95565b91507f6f6e6c79206f776e65722063616e2064656c65746520746865206974656d00006000830152602082019050919050565b60006135a4601d83613d95565b91507f6d73672e73656e646572206d757374206265206974656d2062757965720000006000830152602082019050919050565b60006135e4602283613d95565b91507f6974656d20646f6573206e6f74206861766520746f206265207075726368617360008301527f65640000000000000000000000000000000000000000000000000000000000006020830152604082019050919050565b600061364a602783613d95565b91507f6974656d206d7573742062652070757263686173656420627574206e6f74207660008301527f65726966696564000000000000000000000000000000000000000000000000006020830152604082019050919050565b60006136b0600083613d95565b9150600082019050919050565b60006136ca601e83613d95565b91507f73656c6c65722063616e6e6f742062757920697473206f776e206974656d00006000830152602082019050919050565b600061370a601e83613d95565b91507f6f6e6c792062757965722063616e2063616e63656c20707572636861736500006000830152602082019050919050565b600061374a602383613d95565b91507f6974656d207072696365206d75737420626520756e7369676e656420696e746560008301527f67657200000000000000000000000000000000000000000000000000000000006020830152604082019050919050565b6060820160008201516137b960008501826138db565b5060208201516137cc6020850182613242565b5060408201516137df60408501826138db565b50505050565b6000610160830160008301516137fe60008601826138db565b50602083015184820360208601526138168282613399565b915050604083015184820360408601526138308282613399565b915050606083015161384560608601826138db565b50608083015161385860808601826138db565b5060a083015161386b60a0860182613242565b5060c083015161387e60c0860182613242565b5060e083015161389160e0860182613242565b506101008301516138a6610100860182613333565b506101208301516138bb610120860182613333565b506101408301516138d0610140860182613333565b508091505092915050565b6138e481613de4565b82525050565b6138f381613de4565b82525050565b600060208201905081810360008301526139138184613260565b905092915050565b6000602082019050818103600083015261393581846132be565b905092915050565b6000602082019050818103600083015261395781846133d2565b905092915050565b600060208201905081810360008301526139788161340b565b9050919050565b6000602082019050818103600083015261399881613471565b9050919050565b600060208201905081810360008301526139b8816134b1565b9050919050565b600060208201905081810360008301526139d881613517565b9050919050565b600060208201905081810360008301526139f881613557565b9050919050565b60006020820190508181036000830152613a1881613597565b9050919050565b60006020820190508181036000830152613a38816135d7565b9050919050565b60006020820190508181036000830152613a588161363d565b9050919050565b60006020820190508181036000830152613a78816136a3565b9050919050565b60006020820190508181036000830152613a98816136bd565b9050919050565b60006020820190508181036000830152613ab8816136fd565b9050919050565b60006020820190508181036000830152613ad88161373d565b9050919050565b6000602082019050613af460008301846138ea565b92915050565b6000606082019050613b0f60008301866138ea565b613b1c6020830185613251565b613b2960408301846138ea565b949350505050565b600061016082019050613b47600083018e6138ea565b8181036020830152613b59818d613360565b90508181036040830152613b6d818c613360565b9050613b7c606083018b6138ea565b613b89608083018a613351565b613b9660a0830189613251565b613ba360c0830188613251565b613bb060e0830187613251565b613bbe610100830186613342565b613bcc610120830185613342565b613bda610140830184613342565b9c9b505050505050505050505050565b600061016082019050613c00600083018e6138ea565b8181036020830152613c12818d6133d2565b90508181036040830152613c26818c6133d2565b9050613c35606083018b6138ea565b613c42608083018a6138ea565b613c4f60a0830189613251565b613c5c60c0830188613251565b613c6960e0830187613251565b613c77610100830186613342565b613c85610120830185613342565b613c93610140830184613342565b9c9b505050505050505050505050565b6000604051905081810181811067ffffffffffffffff82111715613cc657600080fd5b8060405250919050565b600067ffffffffffffffff821115613ce757600080fd5b601f19601f8301169050602081019050919050565b6000819050602082019050919050565b6000819050602082019050919050565b600081519050919050565b600081519050919050565b600081519050919050565b600081519050919050565b6000602082019050919050565b6000602082019050919050565b600082825260208201905092915050565b600082825260208201905092915050565b600082825260208201905092915050565b600082825260208201905092915050565b6000613db182613dc4565b9050919050565b60008115159050919050565b600073ffffffffffffffffffffffffffffffffffffffff82169050919050565b6000819050919050565b6000613df982613de4565b9050919050565b82818337600083830152505050565b60005b83811015613e2d578082015181840152602081019050613e12565b83811115613e3c576000848401525b50505050565b6000601f19601f8301169050919050565b613e5c81613de4565b8114613e6757600080fd5b5056fea365627a7a72315820f1150e538ddd905ef3ed21ab11dc84a8c29eb0502656b6bcb08768e81f1783866c6578706572696d656e74616cf564736f6c63430005100040",
  "source": "pragma solidity ^0.5.0;\r\npragma experimental ABIEncoderV2;\r\n\r\n\r\ncontract Marketplace {\r\n    string public name;\r\n    uint256 public itemCount = 0;\r\n    uint256 public courierCount = 0;\r\n\r\n    mapping(uint256 => Item) public items;\r\n    mapping(uint256 => Courier) public couriers;\r\n\r\n    /*\r\n     * Models\r\n     */\r\n    struct Courier {\r\n        uint256 id;\r\n        address payable adr;\r\n        uint256 reputation;\r\n    }\r\n\r\n    struct Item {\r\n        uint256 id;\r\n        string name;\r\n        string description;\r\n        uint256 price;\r\n        uint256 fee;\r\n        address payable owner;\r\n        address payable buyer;\r\n        address payable courier;\r\n        bool purchased;\r\n        bool verified;\r\n        bool transit;\r\n    }\r\n    /*\r\n     * Events\r\n     */\r\n    event ItemCreated(\r\n        uint256 id,\r\n        string name,\r\n        string description,\r\n        uint256 price,\r\n        uint256 fee,\r\n        address payable owner,\r\n        address payable buyer,\r\n        address payable courier,\r\n        bool purchased,\r\n        bool verified,\r\n        bool transit\r\n    );\r\n\r\n    event ItemPurchased();\r\n\r\n    constructor() public {\r\n        name = \"Marketplace\";\r\n    }\r\n\r\n    function getItemCount() public returns (uint256) {\r\n        return itemCount;\r\n    }\r\n\r\n    function becomeCourier() public {\r\n        // require() is not already a courier\r\n        couriers[courierCount] = Courier(courierCount, msg.sender, 0);\r\n        courierCount++;\r\n    }\r\n\r\n    function getCourierIdByAddress(address payable courierAddr)\r\n        private\r\n        returns (uint256)\r\n    {\r\n        for (uint256 i = 0; i < courierCount; i++) {\r\n            Courier memory _courier = couriers[i];\r\n            if (_courier.adr == courierAddr) {\r\n                return i;\r\n            }\r\n        }\r\n    }\r\n\r\n    function getCouriers() public returns (Courier[] memory) {\r\n        Courier[] memory ret = new Courier[](courierCount);\r\n        for (uint256 i = 0; i < courierCount; i++) {\r\n            ret[i] = couriers[i];\r\n        }\r\n        return ret;\r\n    }\r\n\r\n    function getItems() public returns (Item[] memory) {\r\n        Item[] memory ret = new Item[](itemCount);\r\n        for (uint256 i = 0; i < itemCount; i++) {\r\n            ret[i] = items[i];\r\n        }\r\n        return ret;\r\n    }\r\n\r\n    function createItem(\r\n        string memory _name,\r\n        string memory _description,\r\n        uint256 _price\r\n    ) public {\r\n        require(bytes(_name).length > 0, \"\");\r\n        require(_price > 0, \"\");\r\n\r\n        items[itemCount] = Item(\r\n            itemCount,\r\n            _name,\r\n            _description,\r\n            _price,\r\n            0,\r\n            msg.sender,\r\n            address(0),\r\n            address(0),\r\n            false,\r\n            false,\r\n            false\r\n        );\r\n        itemCount++;\r\n        emit ItemCreated(\r\n            itemCount,\r\n            _name,\r\n            _description,\r\n            _price,\r\n            0,\r\n            msg.sender,\r\n            address(0),\r\n            address(0),\r\n            false,\r\n            false,\r\n            false\r\n        );\r\n    }\r\n\r\n    function purchaseItem(uint256 _id) public payable {\r\n        // fetch the item\r\n        Item memory _item = items[_id];\r\n        require(\r\n            msg.value >= _item.price,\r\n            \"there must be enough ether on message sent\"\r\n        );\r\n        require(\r\n            _item.id >= 0 && _item.id <= itemCount,\r\n            \"item must have a valid id\"\r\n        );\r\n        require(!_item.purchased, \"item does not have to be purchased before\");\r\n        require(_item.owner != msg.sender, \"seller cannot buy its own item\");\r\n        _item.purchased = true;\r\n        _item.price = msg.value;\r\n        _item.buyer = msg.sender;\r\n        items[_id] = _item;\r\n    }\r\n\r\n    function setPurchaseFee(uint256 _id, uint256 percentage) public {\r\n        Item memory _item = items[_id];\r\n        _item.fee = (_item.price * percentage) / 100;\r\n        _item.courier = msg.sender;\r\n        _item.transit = true;\r\n        items[_id] = _item;\r\n    }\r\n\r\n    function verifyPurchase(uint256 _id) public payable {\r\n        Item memory _item = items[_id];\r\n        require(msg.sender == _item.buyer, \"msg.sender must be item buyer\");\r\n        require(\r\n            _item.purchased && !_item.verified,\r\n            \"item must be purchased but not verified\"\r\n        );\r\n        require(_item.price >= 0, \"item price must be unsigned integer\");\r\n        uint256 cid = getCourierIdByAddress(_item.courier);\r\n        Courier memory _itemCourier = couriers[cid];\r\n        _itemCourier.reputation++;\r\n        couriers[cid] = _itemCourier;\r\n        _item.purchased = true;\r\n        _item.verified = true;\r\n        _item.transit = false;\r\n        items[_id] = _item;\r\n        _item.owner.transfer(_item.price - _item.fee);\r\n        _item.courier.transfer(_item.fee);\r\n    }\r\n\r\n    function cancelPurchase(uint256 _id) public payable {\r\n        Item memory _item = items[_id];\r\n        require(msg.sender == _item.buyer, \"only buyer can cancel purchase\");\r\n        require(_item.purchased && !_item.verified, \"item must be purchased\");\r\n        _item.purchased = false;\r\n        address payable target = _item.buyer;\r\n        uint256 cid = getCourierIdByAddress(_item.courier);\r\n        Courier memory _itemCourier = couriers[cid];\r\n        _itemCourier.reputation--;\r\n        couriers[cid] = _itemCourier;\r\n        target.transfer(_item.price);\r\n        _item.buyer = address(0);\r\n        _item.transit = false;\r\n        items[_id] = _item;\r\n    }\r\n\r\n    function deleteItem(uint256 _id) public {\r\n        Item memory _item = items[_id];\r\n        require(msg.sender == _item.owner, \"only owner can delete the item\");\r\n        require(!_item.purchased, \"item does not have to be purchased\");\r\n        delete items[_id];\r\n    }\r\n}\r\n",
  "sourcePath": "C:\\Users\\5567i5\\Desktop\\escrow\\escrow\\contracts\\Marketplace.sol",
  "compiler": {
    "name": "solc",
    "version": "0.5.16+commit.9c3226ce.Emscripten.clang"
  },
  "schemaVersion": "3.0.23",
  "updatedAt": "2020-08-26T16:48:08.388Z",
  "networkType": "ethereum",
  "devdoc": {
    "methods": {}
  },
  "userdoc": {
    "methods": {}
  }
}